{
  "_format": "hh-sol-artifact-1",
  "contractName": "Lock",
  "sourceName": "contracts/Lock.sol",
  "abi": [
    {
      "inputs": [
        {
          "internalType": "uint256",
          "name": "_unlockTime",
          "type": "uint256"
        }
      ],
      "stateMutability": "payable",
      "type": "constructor"
    },
    {
      "anonymous": false,
      "inputs": [
        {
          "indexed": false,
          "internalType": "uint256",
          "name": "amount",
          "type": "uint256"
        },
        {
          "indexed": false,
          "internalType": "uint256",
          "name": "when",
          "type": "uint256"
        }
      ],
      "name": "Withdrawal",
      "type": "event"
    },
    {
      "inputs": [],
      "name": "constantsList",
      "outputs": [
        {
          "internalType": "uint256",
          "name": "",
          "type": "uint256"
        }
      ],
      "stateMutability": "view",
      "type": "function"
    },
    {
      "inputs": [
        {
          "internalType": "uint256",
          "name": "",
          "type": "uint256"
        }
      ],
      "name": "numbersList",
      "outputs": [
        {
          "internalType": "int256",
          "name": "",
          "type": "int256"
        }
      ],
      "stateMutability": "view",
      "type": "function"
    },
    {
      "inputs": [],
      "name": "owner",
      "outputs": [
        {
          "internalType": "address payable",
          "name": "",
          "type": "address"
        }
      ],
      "stateMutability": "view",
      "type": "function"
    },
    {
      "inputs": [],
      "name": "raiseWithdrawEvent",
      "outputs": [],
      "stateMutability": "nonpayable",
      "type": "function"
    },
    {
      "inputs": [
        {
          "internalType": "int256",
          "name": "a",
          "type": "int256"
        }
      ],
      "name": "returnConstant",
      "outputs": [
        {
          "internalType": "int256",
          "name": "",
          "type": "int256"
        }
      ],
      "stateMutability": "pure",
      "type": "function"
    },
    {
      "inputs": [
        {
          "internalType": "int256",
          "name": "newSpecialNumber",
          "type": "int256"
        }
      ],
      "name": "setSpecialNumber",
      "outputs": [],
      "stateMutability": "payable",
      "type": "function"
    },
    {
      "inputs": [],
      "name": "specialNumber",
      "outputs": [
        {
          "internalType": "int256",
          "name": "",
          "type": "int256"
        }
      ],
      "stateMutability": "view",
      "type": "function"
    },
    {
      "inputs": [],
      "name": "unlockTime",
      "outputs": [
        {
          "internalType": "uint256",
          "name": "",
          "type": "uint256"
        }
      ],
      "stateMutability": "view",
      "type": "function"
    },
    {
      "inputs": [],
      "name": "withdraw",
      "outputs": [],
      "stateMutability": "nonpayable",
      "type": "function"
    }
  ],
  "bytecode": "0x608060405260086002556040516106ac3803806106ac833981016040819052610027916100a0565b8042106100865760405162461bcd60e51b815260206004820152602360248201527f556e6c6f636b2074696d652073686f756c6420626520696e207468652066757460448201526275726560e81b606482015260840160405180910390fd5b600055600180546001600160a01b031916331790556100b9565b6000602082840312156100b257600080fd5b5051919050565b6105e4806100c86000396000f3fe6080604052600436106100865760003560e01c806373f2b2de1161005957806373f2b2de146100f357806382343a1e146101095780638da5cb5b14610129578063d54fc39c14610161578063f1a1b3281461017757600080fd5b8063251c1aa31461008b578063308e731e146100b45780633ccfd60b146100cb5780634e5afccc146100e0575b600080fd5b34801561009757600080fd5b506100a160005481565b6040519081526020015b60405180910390f35b3480156100c057600080fd5b506100c9610197565b005b3480156100d757600080fd5b506100c96101d1565b6100c96100ee36600461046b565b6102c0565b3480156100ff57600080fd5b506100a160025481565b34801561011557600080fd5b506100a161012436600461046b565b6103ca565b34801561013557600080fd5b50600154610149906001600160a01b031681565b6040516001600160a01b0390911681526020016100ab565b34801561016d57600080fd5b506100a16103c381565b34801561018357600080fd5b506100a161019236600461046b565b6103eb565b604080514781524260208201527fbf2ed60bd5b5965d685680c01195c9514e4382e28e3a5a2d2d5244bf59411b93910160405180910390a1565b6101f66040518060600160405280602b8152602001610584602b9139600054426103fe565b6001546001600160a01b0316331461024c5760405162461bcd60e51b81526020600482015260146024820152732cb7ba9030b932b713ba103a34329037bbb732b960611b60448201526064015b60405180910390fd5b604080514781524260208201527fbf2ed60bd5b5965d685680c01195c9514e4382e28e3a5a2d2d5244bf59411b93910160405180910390a16001546040516001600160a01b03909116904780156108fc02916000818181858888f193505050501580156102bd573d6000803e3d6000fd5b50565b6001546001600160a01b031633146103135760405162461bcd60e51b81526020600482015260166024820152752cb7ba9036bab9ba103132903a34329037bbb732b91760511b6044820152606401610243565b6706f05b59d3b2000034116103905760405162461bcd60e51b815260206004820152603860248201527f546f2073657420746865207370656369616c206e756d62657220796f75206d7560448201527f737420706179206174206c6561737420302e35204554482e00000000000000006064820152608401610243565b6002819055600380546001810182556000919091527fc2575a0e9e593c00f959f8c92f12db2869c3395a3b0502d05e2516446f71f85b0155565b600381815481106103da57600080fd5b600091825260209091200154905081565b60006103f882600261049a565b92915050565b6104458383836040516024016104169392919061051f565b60408051601f198184030181529190526020810180516001600160e01b031663969cdd0360e01b17905261044a565b505050565b80516a636f6e736f6c652e6c6f67602083016000808483855afa5050505050565b60006020828403121561047d57600080fd5b5035919050565b634e487b7160e01b600052601160045260246000fd5b60006001600160ff1b03818413828413808216868404861116156104c0576104c0610484565b600160ff1b60008712828116878305891216156104df576104df610484565b600087129250878205871284841616156104fb576104fb610484565b8785058712818416161561051157610511610484565b505050929093029392505050565b606081526000845180606084015260005b8181101561054d5760208188018101516080868401015201610530565b8181111561055f576000608083860101525b5060208301949094525060408101919091526080601f909201601f1916010191905056fe556e6c6f636b2074696d6520697320256f20616e6420626c6f636b2074696d657374616d7020697320256fa2646970667358221220f008e3871acd7c008eaef81ad1da2203e2e51988a635742f4a9a44725b55548a64736f6c63430008090033",
  "linkReferences": {},
  "deployedLinkReferences": {}
}