{
  "_format": "hh-sol-artifact-1",
  "contractName": "Lock",
  "sourceName": "contracts/Lock.sol",
  "abi": [
    {
      "inputs": [
        {
          "internalType": "uint256",
          "name": "_unlockTime",
          "type": "uint256"
        }
      ],
      "stateMutability": "payable",
      "type": "constructor"
    },
    {
      "anonymous": false,
      "inputs": [
        {
          "indexed": false,
          "internalType": "uint256",
          "name": "amount",
          "type": "uint256"
        },
        {
          "indexed": false,
          "internalType": "uint256",
          "name": "when",
          "type": "uint256"
        }
      ],
      "name": "Withdrawal",
      "type": "event"
    },
    {
      "inputs": [],
      "name": "owner",
      "outputs": [
        {
          "internalType": "address payable",
          "name": "",
          "type": "address"
        }
      ],
      "stateMutability": "view",
      "type": "function"
    },
    {
      "inputs": [],
      "name": "raiseWithdrawEvent",
      "outputs": [],
      "stateMutability": "nonpayable",
      "type": "function"
    },
    {
      "inputs": [],
      "name": "specialNumber",
      "outputs": [
        {
          "internalType": "int256",
          "name": "",
          "type": "int256"
        }
      ],
      "stateMutability": "view",
      "type": "function"
    },
    {
      "inputs": [],
      "name": "unlockTime",
      "outputs": [
        {
          "internalType": "uint256",
          "name": "",
          "type": "uint256"
        }
      ],
      "stateMutability": "view",
      "type": "function"
    },
    {
      "inputs": [],
      "name": "withdraw",
      "outputs": [],
      "stateMutability": "nonpayable",
      "type": "function"
    }
  ],
  "bytecode": "0x608060405260086002556040516103e03803806103e0833981016040819052610027916100a0565b8042106100865760405162461bcd60e51b815260206004820152602360248201527f556e6c6f636b2074696d652073686f756c6420626520696e207468652066757460448201526275726560e81b606482015260840160405180910390fd5b600055600180546001600160a01b031916331790556100b9565b6000602082840312156100b257600080fd5b5051919050565b610318806100c86000396000f3fe608060405234801561001057600080fd5b50600436106100575760003560e01c8063251c1aa31461005c578063308e731e146100785780633ccfd60b1461008257806373f2b2de1461008a5780638da5cb5b14610093575b600080fd5b61006560005481565b6040519081526020015b60405180910390f35b6100806100be565b005b6100806100f8565b61006560025481565b6001546100a6906001600160a01b031681565b6040516001600160a01b03909116815260200161006f565b604080514781524260208201527fbf2ed60bd5b5965d685680c01195c9514e4382e28e3a5a2d2d5244bf59411b93910160405180910390a1565b61011d6040518060600160405280602b81526020016102b8602b9139600054426101e6565b6001546001600160a01b031633146101725760405162461bcd60e51b81526020600482015260146024820152732cb7ba9030b932b713ba103a34329037bbb732b960611b604482015260640160405180910390fd5b604080514781524260208201527fbf2ed60bd5b5965d685680c01195c9514e4382e28e3a5a2d2d5244bf59411b93910160405180910390a16001546040516001600160a01b03909116904780156108fc02916000818181858888f193505050501580156101e3573d6000803e3d6000fd5b50565b61022d8383836040516024016101fe93929190610253565b60408051601f198184030181529190526020810180516001600160e01b031663969cdd0360e01b179052610232565b505050565b80516a636f6e736f6c652e6c6f67602083016000808483855afa5050505050565b606081526000845180606084015260005b818110156102815760208188018101516080868401015201610264565b81811115610293576000608083860101525b5060208301949094525060408101919091526080601f909201601f1916010191905056fe556e6c6f636b2074696d6520697320256f20616e6420626c6f636b2074696d657374616d7020697320256fa2646970667358221220c57e37969be3f64296de34a2a4a0a802e3c4e5ee3f97600d1d75bf5b0d4ab45e64736f6c63430008090033",
  "linkReferences": {},
  "deployedLinkReferences": {}
}