{
  "address": "0x2279B7A0a67DB372996a5FaB50D91eAA73d2eBe6",
  "abi": [
    {
      "inputs": [
        {
          "internalType": "uint256",
          "name": "_unlockTime",
          "type": "uint256"
        }
      ],
      "stateMutability": "payable",
      "type": "constructor"
    },
    {
      "anonymous": false,
      "inputs": [
        {
          "indexed": false,
          "internalType": "uint256",
          "name": "amount",
          "type": "uint256"
        },
        {
          "indexed": false,
          "internalType": "uint256",
          "name": "when",
          "type": "uint256"
        }
      ],
      "name": "Withdrawal",
      "type": "event"
    },
    {
      "inputs": [],
      "name": "owner",
      "outputs": [
        {
          "internalType": "address payable",
          "name": "",
          "type": "address"
        }
      ],
      "stateMutability": "view",
      "type": "function"
    },
    {
      "inputs": [],
      "name": "raiseWithdrawEvent",
      "outputs": [],
      "stateMutability": "nonpayable",
      "type": "function"
    },
    {
      "inputs": [
        {
          "internalType": "int256",
          "name": "newSpecialNumber",
          "type": "int256"
        }
      ],
      "name": "setSpecialNumber",
      "outputs": [],
      "stateMutability": "payable",
      "type": "function"
    },
    {
      "inputs": [],
      "name": "specialNumber",
      "outputs": [
        {
          "internalType": "int256",
          "name": "",
          "type": "int256"
        }
      ],
      "stateMutability": "view",
      "type": "function"
    },
    {
      "inputs": [],
      "name": "unlockTime",
      "outputs": [
        {
          "internalType": "uint256",
          "name": "",
          "type": "uint256"
        }
      ],
      "stateMutability": "view",
      "type": "function"
    },
    {
      "inputs": [],
      "name": "withdraw",
      "outputs": [],
      "stateMutability": "nonpayable",
      "type": "function"
    }
  ],
  "transactionHash": "0x0cc88fe02e42428a0d64b4ddc628648ce6bbc52e3d30c3320bc6768b080b7b98",
  "args": [
    1692081924
  ],
  "numDeployments": 7,
  "solcInputHash": "8f899ce0d62d95a01a1664b4867a5dda",
  "bytecode": "0x60806040526008600255604051610521380380610521833981016040819052610027916100a0565b8042106100865760405162461bcd60e51b815260206004820152602360248201527f556e6c6f636b2074696d652073686f756c6420626520696e207468652066757460448201526275726560e81b606482015260840160405180910390fd5b600055600180546001600160a01b031916331790556100b9565b6000602082840312156100b257600080fd5b5051919050565b610459806100c86000396000f3fe6080604052600436106100555760003560e01c8063251c1aa31461005a578063308e731e146100835780633ccfd60b1461009a5780634e5afccc146100af57806373f2b2de146100c25780638da5cb5b146100d8575b600080fd5b34801561006657600080fd5b5061007060005481565b6040519081526020015b60405180910390f35b34801561008f57600080fd5b50610098610110565b005b3480156100a657600080fd5b5061009861014a565b6100986100bd36600461037b565b610239565b3480156100ce57600080fd5b5061007060025481565b3480156100e457600080fd5b506001546100f8906001600160a01b031681565b6040516001600160a01b03909116815260200161007a565b604080514781524260208201527fbf2ed60bd5b5965d685680c01195c9514e4382e28e3a5a2d2d5244bf59411b93910160405180910390a1565b61016f6040518060600160405280602b81526020016103f9602b91396000544261030e565b6001546001600160a01b031633146101c55760405162461bcd60e51b81526020600482015260146024820152732cb7ba9030b932b713ba103a34329037bbb732b960611b60448201526064015b60405180910390fd5b604080514781524260208201527fbf2ed60bd5b5965d685680c01195c9514e4382e28e3a5a2d2d5244bf59411b93910160405180910390a16001546040516001600160a01b03909116904780156108fc02916000818181858888f19350505050158015610236573d6000803e3d6000fd5b50565b6001546001600160a01b0316331461028c5760405162461bcd60e51b81526020600482015260166024820152752cb7ba9036bab9ba103132903a34329037bbb732b91760511b60448201526064016101bc565b6706f05b59d3b2000034116103095760405162461bcd60e51b815260206004820152603860248201527f546f2073657420746865207370656369616c206e756d62657220796f75206d7560448201527f737420706179206174206c6561737420302e35204554482e000000000000000060648201526084016101bc565b600255565b61035583838360405160240161032693929190610394565b60408051601f198184030181529190526020810180516001600160e01b031663969cdd0360e01b17905261035a565b505050565b80516a636f6e736f6c652e6c6f67602083016000808483855afa5050505050565b60006020828403121561038d57600080fd5b5035919050565b606081526000845180606084015260005b818110156103c257602081880181015160808684010152016103a5565b818111156103d4576000608083860101525b5060208301949094525060408101919091526080601f909201601f1916010191905056fe556e6c6f636b2074696d6520697320256f20616e6420626c6f636b2074696d657374616d7020697320256fa2646970667358221220fc6d3f6ee81b37ddc247719b95678031812a4765b35dbbc9b4bab83e5b275ace64736f6c63430008090033",
  "devdoc": {
    "kind": "dev",
    "methods": {},
    "version": 1
  },
  "userdoc": {
    "kind": "user",
    "methods": {},
    "version": 1
  },
  "storageLayout": {
    "storage": [
      {
        "astId": 4,
        "contract": "contracts/Lock.sol:Lock",
        "label": "unlockTime",
        "offset": 0,
        "slot": "0",
        "type": "t_uint256"
      },
      {
        "astId": 6,
        "contract": "contracts/Lock.sol:Lock",
        "label": "owner",
        "offset": 0,
        "slot": "1",
        "type": "t_address_payable"
      },
      {
        "astId": 9,
        "contract": "contracts/Lock.sol:Lock",
        "label": "specialNumber",
        "offset": 0,
        "slot": "2",
        "type": "t_int256"
      }
    ],
    "types": {
      "t_address_payable": {
        "encoding": "inplace",
        "label": "address payable",
        "numberOfBytes": "20"
      },
      "t_int256": {
        "encoding": "inplace",
        "label": "int256",
        "numberOfBytes": "32"
      },
      "t_uint256": {
        "encoding": "inplace",
        "label": "uint256",
        "numberOfBytes": "32"
      }
    }
  }
}